:020000040800F2
:1000000000C00020E11300082D0400082F040008A0
:100010003104000833040008350400080000000023
:10002000000000000000000000000000370400088D
:1000300039040008000000003B0400083D040008EB
:10004000291400082914000829140008291400089C
:10005000291400082914000829140008291400088C
:10006000291400082914000829140008291400087C
:10007000291400082914000829140008291400086C
:10008000291400082914000829140008291400085C
:10009000291400082914000829140008291400084C
:1000A000291400082914000829140008291400083C
:1000B000291400082914000829140008291400082C
:1000C0002914000829140008291400084504000810
:1000D000291400082914000829140008291400080C
:1000E00029140008291400082914000829140008FC
:1000F00029140008291400082914000829140008EC
:1001000029140008291400082914000829140008DB
:1001100029140008291400082914000829140008CB
:1001200029140008291400082914000829140008BB
:1001300000000000000000000000000000000000BF
:1001400000000000000000000000000000000000AF
:10015000000000000000000000000000000000009F
:10016000000000000000000000000000000000008F
:10017000000000000000000000000000000000007F
:10018000000000000000000000000000000000006F
:10019000000000000000000000000000000000005F
:1001A000000000000000000000000000000000004F
:1001B000000000000000000000000000000000003F
:1001C000000000000000000000000000000000002F
:1001D000000000000000000000000000000000001F
:0401E0005FF8E0F1F3
:1001E40010B5054C237833B9044B13B10448AFF36D
:1001F40000800123237010BD3C0400200000000097
:10020400F815000808B5034B1BB103490348AFF3C5
:10021400008008BD0000000040040020F81500081C
:1002240030B589B0002404940594069407941C4BBB
:100234009A6942F020029A619A6902F020020092BF
:10024400009A9A6942F010029A619A6902F01002C7
:100254000192019A9A6942F004029A619A6902F041
:1002640004020292029A9A6942F008029A619B6916
:1002740003F008030393039B0A4D2246FF212846FB
:1002840000F014FCFF230493012305930694022336
:10029400079304A9284600F0E9FA09B030BD00BF6D
:1002A400001002400010014072B6FEE700B591B0A4
:1002B4002822002106A801F0DBF800230193029311
:1002C400039304930593012206924FF4803307931A
:1002D4000A9202220D920E934FF4E0130F9306A894
:1002E40000F000FC80B90F23019302210291002346
:1002F40003934FF480620492059301A800F030FE4A
:1003040020B911B05DF804FBFFF7CEFFFFF7CCFF77
:1003140008B500F067F9FFF7C9FFFFF781FF00F0A8
:1003240005F800F097F800F0AFF8FEE708B50E48BE
:100334000E4B03604FF48273436000238360C360F9
:10034400036143614FF4007282611022C26103624F
:10035400436283620A23C36200F0DEFE00B908BD73
:10036400FFF7A2FFFBE700BF580400200030014064
:1003740000B587B0002302930393049305930268A6
:10038400164B9A4202D007B05DF804FB03F56043B4
:100394009A6942F480529A619A6902F480520092F6
:1003A400009A9A6942F004029A619B6903F004037B
:1003B4000193019BA0230293022303930323059338
:1003C40002A9074800F052FA00221146232000F047
:1003D4003FF9232000F074F9D5E700BF0030014055
:1003E4000008014082B00E4B9A6942F001029A6102
:1003F4009A6902F001020092009ADA6942F080528E
:10040400DA61DB6903F080530193019B054A536869
:1004140023F0E06343F08063536002B0704700BF91
:100424000010024000000140FEE7FEE7FEE7FEE7A1
:10043400FEE770477047704708B500F0E5F808BD5F
:1004440008B5024800F0C4FE08BD00BF58040020EF
:100454007047000008B50A480A4B03604FF4E133C3
:10046400436000238360C36003610C2242618361A3
:10047400C36100F083FF00B908BDFFF715FFFBE778
:10048400B00400200038014008B50A480A4B036054
:100494004FF4E133436000238360C36003610C22A3
:1004A40042618361C36100F069FF00B908BDFFF7D1
:1004B400FBFEFBE7F00400200048004010B588B0C4
:1004C4000023049305930693079303682D4A9342EC
:1004D40004D02D4A93422BD008B010BD2B4B9A69FF
:1004E40042F480429A619A6902F480420092009A2E
:1004F4009A6942F004029A619B6903F00403019330
:10050400019B4FF400730493022305930323079381
:100514001F4C04A9204600F0A9F94FF4806304930A
:1005240000230593069304A9204600F09FF9D3E71E
:10053400164BDA6942F48022DA61DA6902F4802225
:100544000292029A9A6942F008029A619B6903F046
:1005540008030393039B4FF48063049302230593DE
:10056400032307930B4C04A9204600F07FF94FF4B2
:100574000063049300230593069304A9204600F026
:1005840075F9A9E700380140004800400010024016
:1005940000080140000C014010B504460E4B1878C9
:1005A4004FF47A73B3FBF0F30C4A1068B0FBF3F02A
:1005B40000F094F868B90F2C01D901200AE0002258
:1005C40021464FF0FF3000F043F8054B1C6000203B
:1005D40000E0012010BD00BF040000200000002046
:1005E4000800002008B5074A136843F0100313609D
:1005F400032000F01BF80020FFF7CEFFFFF7F2FE08
:10060400002008BD00200240034A1168034B1B78F8
:100614000B441360704700BF300500200400002025
:10062400014B1868704700BF30050020074AD368A3
:1006340023F4E0631B041B0C000200F4E06003439A
:1006440043F0BF6343F40033D360704700ED00E030
:1006540000B5194BDB68C3F30223C3F1070CBCF1EB
:10066400040F28BF4FF0040C03F1040EBEF1060F73
:1006740018D9033B4FF0FF3E0EFA0CFC21EA0C01A3
:1006840099400EFA03F322EA0303194300280BDB13
:100694000901C9B200F1604000F5614080F800131F
:1006A4005DF804FB0023E5E700F00F000901C9B27F
:1006B400024B1954F4E700BF00ED00E014ED00E034
:1006C400002807DB00F01F02400901239340024A7F
:1006D40042F82030704700BF00E100E00138B0F17B
:1006E400807F0BD24FF0E0235861054AF02182F855
:1006F40023100020986107221A6170470120704777
:1007040000ED00E008B590F82130022B03D004235B
:100714008363012008BD0268136823F00E0313608D
:100724000268136823F00103136003684B4A934281
:100734004ED9783A934224D01432934230D01432B2
:1007440093422FD0143293422FD0143293422FD09D
:10075400143293422FD0143293422FD002F5627296
:1007640093422ED0143293422DD0143293422CD083
:100774001432934202D04FF4803203E04FF480529B
:1007840000E00122364B5A60012380F82130002317
:1007940080F82030436B002B5ED098470020B9E7E7
:1007A4001022EFE74FF48072ECE74FF48052E9E750
:1007B4004FF48032E6E74FF48012E3E74FF08072A3
:1007C400E0E70122DEE71022DCE74FF48072D9E78C
:1007D400244A934224D01432934225D014329342B3
:1007E40024D01432934224D01432934224D01432AD
:1007F400934224D01432934224D002F5627293427D
:1008040023D01432934222D01432934221D0143292
:10081400934202D04FF4803203E04FF4805200E060
:100824000122114B5A60AFE71022FAE74FF48072AD
:10083400F7E74FF48052F4E74FF48032F1E74FF4D6
:100844008012EEE74FF08072EBE70122E9E7102215
:10085400E7E74FF48072E4E700205BE780000240A2
:1008640000040240080002400000024070B582B05B
:100874000024A446B0E0874DAA4210D007D9864D83
:10088400AA420CD005F58035AA4208D013E0A5F59C
:100894008015AA4203D005F57025AA4207D18A68BB
:1008A400002A62D0012A5BD04361082403E0A5F545
:1008B4008015AA42F3D0BEF1FF0F58D80646BEF108
:1008C400FF0F56D84FEA8C0233680F25954023EA70
:1008D400050304FA02F2134333604B6813F0805F9C
:1008E40078D06E4B9A6942F001029A619B6903F0D9
:1008F40001030193019B4FEA9C02951C684B53F83A
:1009040025600CF003039D000F23AB4026EA030689
:10091400644B984233D003F58063984200F098808A
:1009240003F58063984200F0958003F58063984254
:1009340000F0928003F58063984200F08F8003F505
:100944008063984219D006231AE0CC68B3E7CC68D8
:100954000434B0E7CC680834ADE7CC680C34AAE7BB
:1009640003610824A7E70024A5E70424A3E7061DE0
:10097400A5E7ACF108029200A6E7052300E00023F6
:10098400AB4033430232464D45F822304B6813F4F2
:10099400803F65D0444A136843EA0E0313604B68F2
:1009A40013F4003F62D0404A536843EA0E03536095
:1009B4004B6813F4801F5FD03B4A936843EA0E03ED
:1009C40093604B6813F4001F5CD0374AD36843EA42
:1009D4000E03D3600CF1010C0A6832FA0CF357D001
:1009E400012303FA0CF302EA030E33EA0202F1D103
:1009F4004A68122A3FF63FAF122A3FF65CAF01A5C0
:100A040055F822F0A30800084F0900085909000806
:100A14006B090008BB080008BB080008BB080008F5
:100A2400BB080008BB080008BB080008BB08000896
:100A3400BB080008BB080008BB080008BB08000886
:100A4400BB080008BB080008530900085F09000838
:100A5400012395E7022393E7032391E704238FE718
:100A6400114A136823EA0E03136098E70E4A536889
:100A740023EA0E0353609BE70B4A936823EA0E03B1
:100A840093609EE7084AD36823EA0E03D360A1E784
:100A940002B070BD000022100000311000100240AE
:100AA4000000014000080140000401400AB1016156
:100AB400704709040161704782B0084B1B68084AFB
:100AC400A2FB03235B0A00FB03F3019300BF019B1A
:100AD4005A1E0192002BF9D102B070470000002089
:100AE400D34D6210002800F0F18170B582B0044645
:100AF400036813F0010F2CD0994B5B6803F00C03CF
:100B0400042B1DD0964B5B6803F00C03082B12D00A
:100B14006368B3F5803F41D0002B55D103F1804386
:100B240003F504331A6822F480321A601A6822F436
:100B340080221A6037E08A4B5B6813F4803FE7D069
:100B4400874B1B6813F4003F03D06368002B00F04D
:100B5400BF81236813F0020F75D0814B5B6813F0DB
:100B64000C0F5FD07E4B5B6803F00C03082B54D052
:100B74002369002B00F08A807A4B01221A60FFF768
:100B84004FFD0546764B1B6813F0020F75D1FFF736
:100B940047FD401B0228F5D903209EE1704A1368E3
:100BA40043F480331360636843B3FFF739FD0546AC
:100BB4006B4B1B6813F4003FCBD1FFF731FD401B97
:100BC4006428F5D9032088E1B3F5A02F09D0644B3C
:100BD4001A6822F480321A601A6822F480221A6099
:100BE400E1E703F18043A3F53C331A6842F4802221
:100BF4001A601A6842F480321A60D4E7FFF710FDD5
:100C04000546574B1B6813F4003FA2D0FFF708FDBD
:100C1400401B6428F5D903205FE1514B5B6813F452
:100C2400803FA5D14E4B1B6813F0020F03D02369FC
:100C3400012B40F04F814A4A136823F0F80361699D
:100C440043EAC1031360236813F0080F33D0A36988
:100C5400002B5CD0434B0122C3F88024FFF7E0FC57
:100C640005463F4B5B6A13F0020F21D1FFF7D8FC16
:100C7400401B0228F5D903202FE1394A136823F0D9
:100C8400F803616943EAC1031360DCE7354B0022D2
:100C94001A60FFF7C5FC0546314B1B6813F0020FC1
:100CA400D1D0FFF7BDFC401B0228F5D9032014E185
:100CB4000120FFF701FF236813F0040F00F0968072
:100CC400274BDB6913F0805F34D1254BDA6942F09E
:100CD4008052DA61DB6903F080530193019B0125A3
:100CE400214B1B6813F4807F26D0E368012B3DD091
:100CF400002B53D103F1804303F504331A6A22F025
:100D040001021A621A6A22F004021A6233E0154BD5
:100D14000022C3F88024FFF783FC0546104B5B6A6E
:100D240013F0020FC7D0FFF77BFC401B0228F5D954
:100D34000320D2E00025D3E70B4A136843F4807301
:100D44001360FFF76DFC0646074B1B6813F4807FA6
:100D5400CBD1FFF765FC801B6428F5D90320BCE0E8
:100D64000010024000004242007000405F4A136AD3
:100D740043F001031362E36833B3FFF751FC064603
:100D84005A4B1B6A13F0020F2FD1FFF749FC801B4B
:100D940041F288339842F3D903209EE0052B09D011
:100DA400524B1A6A22F001021A621A6A22F00402F1
:100DB4001A62E0E74D4B1A6A42F004021A621A6A98
:100DC40042F001021A62D6E7FFF72AFC0646474BB7
:100DD4001B6A13F0020F08D0FFF722FC801B41F2BC
:100DE40088339842F3D9032077E0E5B9E369002B0F
:100DF40072D03E4A526802F00C02082A56D0022BE6
:100E040017D03B4B00221A66FFF70AFC0446374B07
:100E14001B6813F0007F47D0FFF702FC001B022879
:100E2400F5D9032059E0314AD36923F08053D361C3
:100E3400DCE72F4B00221A66FFF7F2FB05462B4B2B
:100E44001B6813F0007F06D0FFF7EAFB401B022863
:100E5400F5D9032041E0236AB3F5803F1AD0234932
:100E64004B6823F47413226A606A024313434B6091
:100E74001F4B01221A66FFF7D3FB04461B4B1B686A
:100E840013F0007F0ED1FFF7CBFB001B0228F5D92E
:100E9400032022E0154A536823F40033A1680B436E
:100EA4005360DCE7002018E0002016E0012B16D088
:100EB4000E4B5B6803F48031226A914211D103F432
:100EC4007013626A93420ED1002006E0012070473D
:100ED400012002E0012000E0002002B070BD0120EA
:100EE400FBE70120F9E70120F7E700BF001002400B
:100EF4000000424286B0164B0FCB0DF1180C0CE9E2
:100F04000F0040F20123ADF80430124B5B6803F08C
:100F14000C02082A02D0104806B07047C3F383427B
:100F2400624412F8100C13F4803F0CD0094B5B6838
:100F3400C3F34043634413F8143C074A02FB00F034
:100F4400B0FBF3F0E8E7054B03FB00F0E4E700BF78
:100F5400281600080010024000127A0000093D0023
:100F6400002800F0A08070B50D460446524B1B6863
:100F740003F007038B420BD24F4A136823F0070395
:100F84000B431360136803F007038B4240F08D801A
:100F9400236813F0020F17D013F0040F04D0474A4C
:100FA400536843F4E0635360236813F0080F04D0DC
:100FB400424A536843F460535360404A536823F0F1
:100FC400F003A1680B435360236813F0010F31D081
:100FD4006368012B20D0022B25D0384A126812F006
:100FE400020F64D035494A6822F0030213434B6070
:100FF400FFF716FB0646314B5B6803F00C0362688F
:10100400B3EB820F16D0FFF70BFB801B41F2883342
:101014009842F0D9032045E0284A126812F4003FB0
:10102400E0D101203EE0254A126812F0007FD9D1B8
:10103400012037E0204B1B6803F00703AB420AD9B9
:101044001D4A136823F007032B431360136803F04E
:101054000703AB422DD1236813F0040F06D0174ABF
:10106400536823F4E063E1680B435360236813F08F
:10107400080F07D0114A536823F46053216943EAE7
:10108400C1035360FFF736FF0C4B5B68C3F30313D4
:101094000B4AD35CD8400B4B18600B4B1868FFF716
:1010A4007BFA002070BD012070470120FAE701207F
:1010B400F8E70120F6E700BF0020024000100240DC
:1010C400101600080000002008000020014B1868DA
:1010D400704700BF0000002008B5FFF7F7FF044B7E
:1010E4005B68C3F30223034AD35CD84008BD00BF46
:1010F400001002402016000808B5FFF7E7FF044B74
:101104005B68C3F3C223034AD35CD84008BD00BF65
:101114000010024020160008002856D010B50446DE
:10112400436A33B94368B3F5827F05D00023C361B2
:1011340002E00023036143610023A36294F8513069
:10114400002B3CD0022384F851302268136823F02A
:1011540040031360636803F48273A26802F40442D8
:101164001343E26802F400621343226902F00202AC
:101174001343626902F001021343A26902F400728C
:101184001343E26902F038021343226A02F0800238
:101194001343A26A02F40052216813430B60638B69
:1011A400226803F0040353602268D36923F40063C4
:1011B400D36100206065012384F8513010BD84F8A8
:1011C40050302046FFF7D4F8BCE701207047704741
:1011D40030B585B00446026851689368C3F3801043
:1011E40013F0400F05D113F0010F02D011F0400F9E
:1011F4005AD113F0020F02D011F0800F58D1C3F36B
:10120400401513F0200F01D1002854D011F0200F05
:1012140051D078B194F85130DBB2032B4DD0636DCB
:1012240043F00403636500230193D3680193936837
:101234000193019B65B1636D43F001036365002372
:10124400039393680393136823F040031360039B91
:10125400636D002B2FD02268536823F0E0035360A2
:10126400012384F8513011F0030F2ED02268536803
:1012740023F003035360E36C4BB1164A5A63E06CEA
:10128400FFF740FA18B1636D43F040036365A36C44
:101294008BB1104A5A63A06CFFF734FA58B1636DEE
:1012A40043F04003636506E0236C2046984702E060
:1012B400636C2046984705B030BD00230293D36881
:1012C400029393680293029BF5E72046FFF77FFFA2
:1012D400F1E700BFDD12000808B5406A0023C387A8
:1012E400C386FFF774FF08BD10B50446026813698E
:1012F40023F44053C1680B431361836802691343A9
:1013040042691A430168CB6823F4B05323F00C03F9
:101314001343CB600268536923F4407381690B4320
:1013240053610268134B9A4220D0FFF7D5FE024660
:1013340002EB820202EB820263689B00B2FBF3F2CF
:101344000D48A0FB02314909642303FB11231B014F
:101354003233A0FB03235B0903F0F00202EB01121A
:1013640003F00F03216813448B6010BDFFF7C4FE24
:101374000246DDE7003801401F85EB5158B310B534
:10138400044690F839300BB3242384F839302268AA
:10139400D36823F40053D3602046FFF7A5FF2268E7
:1013A400136923F4904313612268536923F02A03D9
:1013B40053612268D36843F40053D3600020E06390
:1013C400202384F8393084F83A3010BD80F838305E
:1013D400FFF774F8D8E7012070470000002103E00C
:1013E4000B4B5B58435004310A480B4B42189A424A
:1013F400F6D30A4A02E0002342F8043B084B9A421F
:10140400F9D3FFF725F800F00FF8FEF781FF7047D6
:101414004C160008000000203C0400203C0400207E
:1014240038050020FEE7000070B50D4E0D4D761B0B
:10143400B61006D0002455F8043B01349847A64260
:10144400F9D1094E094D00F0D5F8761BB61006D037
:10145400002455F8043B01349847A642F9D170BDE5
:1014640040160008401600084816000840160008F8
:10147400830730B548D0541E002A3FD00346CAB271
:1014840001E0013C3AD303F8012B9D07F9D1032C69
:101494002DD9CDB245EA05250F2C45EA054536D9A7
:1014A400A4F1100222F00F0C03F1200EE6444FEADF
:1014B400121C03F1100242E9045542E902551032AC
:1014C4007245F8D10CF1010214F00C0F03EB021277
:1014D40004F00F0C13D0ACF1040323F00303043322
:1014E400134442F8045B9342FBD10CF003042CB187
:1014F400CAB21C4403F8012B9C42FBD130BD6446A4
:101504001346002CF4D1F9E703461446BFE71A4604
:10151400A446E0E7024B13B1024800F005B8704757
:101524000000000039150008002301461A46184639
:1015340000F01AB838B5084B084D5B1B9C1007D057
:10154400043B1D44013C55F804399847002CF9D15B
:10155400BDE8384000F054B84C160008481600089E
:10156400704700BF704700BF2DE9F047DFF87CA04B
:101574000646DAF8000098460F469146FFF7F0FF5A
:101584001B4B1B68D3F8484124B365681F2D26DC28
:101594005EB96B1C0235DAF80000636044F825700C
:1015A400FFF7E0FF0020BDE8F087012304EB85018D
:1015B400C1F88890D4F88821AB401A43022EC4F8AD
:1015C4008821C1F80881E4D1D4F88C211343C4F8EC
:1015D4008C31DEE703F5A674C3F84841D5E7DAF8A1
:1015E4000000FFF7BFFF4FF0FF30DCE738040020B6
:1015F4003C160008F8B500BFF8BC08BC9E4670470E
:0C160400F8B500BFF8BC08BC9E4670475B
:1016100000000000000000000102030406070809A2
:101620000000000001020304020304050607080984
:101630000A0B0C0D0E0F101000000000100000200F
:08164000191500080902000859
:04164800E5010008B0
:10164C000024F40001000000100000000000000065
:10165C0000000000FC02002064030020CC030020EA
:10166C00000000000000000000000000000000006E
:10167C00000000000000000000000000000000005E
:10168C00000000000000000000000000000000004E
:10169C00000000000000000000000000000000003E
:1016AC00000000000000000000000000000000002E
:1016BC00000000000000000000000000000000001E
:1016CC00000000000000000000000000000000000E
:1016DC0000000000000000000000000000000000FE
:1016EC0000000000000000000000000000000000EE
:1016FC0000000000000000000100000000000000DD
:10170C000E33CDAB34126DE6ECDE05000B000000A1
:10171C0000000000000000000000000000000000BD
:10172C0000000000000000000000000000000000AD
:10173C00000000000000000000000000000000009D
:10174C00000000000000000000000000000000008D
:0C1A7C0000000000000000003405002005
:04000005080013E1FB
:00000001FF
